S01B0000637562655F7361745F6672616D5F765F302E312E73726563FB
S11300009820002029010000BD010000BD0100006E
S113001000000000000000000000000000000000DC
S1130020000000000000000000000000BD0100000E
S11300300000000000000000BD010000BD01000040
S1130040BD010000BD010000BD010000BD010000B4
S1130050BD010000BD010000BD010000BD010000A4
S1130060BD010000BD010000BD010000BD01000094
S1130070BD010000BD010000BD010000BD01000084
S1130080BD010000BD270000BD010000000000000C
S113009000000000BD010000BD010000BD01000022
S11300A0BD010000BD010000BD010000BD01000054
S11300B00000000010B5064C2378002B07D1054B37
S11300C0002B02D0044800E000BF0123237010BDC0
S11300D02C0000200000000078430000084B10B5FD
S11300E0002B03D00749084800E000BF0748036815
S11300F0002B00D110BD064B002BFBD09847F9E72D
S11301000000000030000020784300007843000025
S11301100000000080B500AF024B9847C046BD46C2
S113012080BDC0460508000080B582B000AF194B01
S11301307B60194B3B607A683B689A420CD007E0BD
S11301403B681A1D3A607A68111D796012681A605A
S11301503A68124B9A42F3D3114B3B6004E03B687C
S11301601A1D3A6000221A603A680E4B9A42F6D37E
S11301700D4B7B600D4B7A68FF218A439A600C4AD1
S1130180536880210B4353600A4B98470A4B9847A6
S1130190FEE7C04678430000000000202C00002049
S11301A02C000020980000200000000000ED00E07A
S11301B00040004165410000BD28000080B500AF4B
S11301C0FEE780B584B000AFF8607A600B23FB18BB
S11301D00A1C1A700B23FB181A78FB682032920051
S11301E07968D150C046BD4604B080BD80B582B0A8
S11301F000AF78607B68DB6908221A437B68DA61A8
S1130200C046BD4602B080BD80B582B000AF786004
S11302107B68DB69802252001A437B68DA61C0463E
S1130220BD4602B080BD80B584B000AFF8607A608E
S11302300B23FB180A1C1A700B23FB181B78FA6893
S1130240DB01D31804337A681A60C046BD4604B093
S113025080BD80B584B000AFF8607A600B23FB18D2
S11302600A1C1A700B23FB181B78FA68DB01D318DD
S113027018337A681A60C046BD4604B080BD80B5A4
S113028084B000AFF8607A600B23FB180A1C1A7064
S11302900B23FB181B78FA68DB01D31814337A6834
S11302A01A60C046BD4604B080BD90B585B000AFAD
S11302B078600C0010001900FB1C221C1A70BB1C77
S11302C0021C1A707B1C0A1C1A70FB1C1978BB1CBC
S11302D01A780F23FB1878683024C90141188A184A
S11302E0121912781A700F23FB180F22BA181278F9
S11302F00F218A431A707B1C1B780F221340D9B23A
S11303000F23FB180F22BA1812780A431A70FB1C29
S11303101A78BB1C1B7879683020D2018A18D3184C
S11303201B180F22BA1812781A70C046BD4605B0C1
S113033090BD90B585B000AF78600C001000190036
S1130340FB1C221C1A70BB1C021C1A707B1C0A1C8E
S11303501A70FB1C1978BB1C1A780F23FB187868D9
S11303603024C90141188A18121912781A700F23FF
S1130370FB180F22BA1812780F210A401A707B1C3E
S11303801B781B01D9B20F23FB180F22BA1812785D
S11303900A431A70FB1C1A78BB1C1B78796830203E
S11303A0D2018A18D3181B180F22BA1812781A709F
S11303B0C046BD4605B090BD90B585B000AF78602D
S11303C00C0010001900FB1C221C1A70BB1C021C20
S11303D01A707B1C0A1C1A70FB1C1978BB1C1A7837
S11303E00F23FB1878684024C90141188A18121990
S11303F012781A700F23FB180F22BA1812780121F1
S11304008A431A707B1C19780F23FB180F22BA1821
S113041012780A431A70FB1C1A78BB1C1B78796883
S11304204020D2018A18D3181B180F22BA18127848
S11304301A70C046BD4605B090BDB0B582B000AFDD
S1130440786008001100FB1C021C1A70BB1C0A1CFB
S11304501A70FB1C1A78BB1C1B78F91C0878B91C91
S113046009787C684025C001201841184919097889
S1130470C9B204200143CCB279684020D2018A1861
S1130480D3181B18221C1A70C046BD4602B0B0BD5A
S1130490B0B582B000AF786008001100FB1C021CEC
S11304A01A70BB1C0A1C1A70FB1C1A78BB1C1B7824
S11304B0F91C0878B91C09787C684025C00120180B
S11304C0411849190978C9B204208143CCB279682A
S11304D04020D2018A18D3181B18221C1A70C04657
S11304E0BD4602B0B0BD000090B583B000AF0400BB
S11304F008001100FB1D221C1A70BB1D021C1A707F
S11305007B1D0A1C1A707B1D1B78012B0CD0022B3F
S113051029D0002B46D1BB1D1A78FB1D1B78274818
S11305201900274B984744E0BB1D1B7801229A40D1
S1130530FB1D1978C023DB051800224B9847BB1D0F
S11305401A78FB1D1B781D4819001F4B9847BB1DCB
S11305501B7801229A40FB1D1978C023DB05180083
S11305601A4B984725E0BB1D1B7801229A40FB1DBE
S11305701978C023DB051800124B9847BB1D1A7865
S1130580FB1D1B780D4819000F4B9847BB1D1B78AA
S113059001229A40FB1D1978C023DB0518000C4B7F
S11305A0984706E00B4B8922190000200A4B984714
S11305B0C046C046BD4603B090BDC04600280040BA
S11305C091040000270200003B04000053020000D5
S11305D07F020000BC410000B90C000090B585B05A
S11305E000AF786039607B685A090F23FB181A70D2
S11305F07B68DAB20E23FB181F210A401A703B688D
S113060001330AD10E23FB181A780F23FB1819782B
S11306101B4800231B4CA0472EE00E23FB181A781E
S11306200F23FB18197816480123164CA0470E23F4
S1130630FB181B78012213400FD00E23FB181B78E4
S11306405B08DAB23B68D8B20F23FB1819780C4C5C
S1130650030020000C4CA0470EE00E23FB181B786F
S11306605B08DAB23B68D8B20F23FB181978044C44
S113067003002000054CA047C046BD4605B090BD10
S113068000280040B903000033030000AB0200005F
S113069080B582B000AF0200FB1D1A70BB1D0A1C9E
S11306A01A70FB1D1B785B09D8B2FB1D1B781F2237
S11306B01340D9B2BB1D1B781A00034B9847C046A0
S11306C0BD4602B080BDC046E904000080B582B0DA
S11306D000AF786039603A687B6811001800034BFA
S11306E09847C046BD4602B080BDC046DD05000047
S11306F080B500AF024B9847C046BD4680BDC0469A
S11307006510000080B500AF01211020094B984707
S1130710094B19001020094B984701211120054B62
S11307209847074B19001120044B9847C046BD4613
S113073080BDC0469106000003001000CD060000F5
S11307400300110080B500AF094B402215211800A9
S1130750084B9847064B432211211800054B984734
S1130760054B1800054B9847C046BD4680BDC046A2
S113077000180040C301000000040040ED01000027
S113078080B500AF064B9847064A074B1100180086
S1130790064B9847064B9847C046BD4680BDC046A9
S11307A045070000000C00425800002031090000F9
S11307B00507000080B500AF0A4B18000A4B9847A4
S11307C00A4B40221B211800094B9847094B9847B4
S11307D002000949094B1800094B9847C046BD4619
S11307E080BDC0460004004009020000001800401B
S11307F0C30100007527000000200042780000209B
S1130800CD0A000080B500AF044B9847044B9847CD
S1130810044B9847C046BD4680BDC046F106000063
S113082081070000B507000090B583B000AF020057
S1130830BB1D1A80074B1C68BB1D1B881800064B88
S11308409847030019002000044B9847C046BD4652
S113085003B090BD48000020FD0F000029100000E7
S113086080B58AB000AFF860B960BB1D1A80FB6820
S1130870143B7B627B6A9A8B1423FB181A80BB1D82
S11308801A881423FB185A601423FB180C4A5A8044
S11308901423FB18BA689A607B6A1422BA181100F0
S11308A01800084B984703003B623B6A002B01D0B9
S11308B03B6A01E0BB1D1B881800BD460AB080BD21
S11308C00180FFFF211E000080B58AB000AFF860F0
S11308D0B960BB1D1A80FB68143B7B627B6A9A8BF0
S11308E01423FB181A80BB1D1A881423FB185A60A2
S11308F01423FB180C4A5A801423FB18BA689A6014
S11309007B6A1422BA1811001800084B9847030098
S11309103B623B6A002B01D03B6A01E0BB1D1B8894
S11309201800BD460AB080BD0080FFFF211E0000F4
S113093080B584B000AF786039607B685A1E9341FB
S1130940DBB20E495E2218000D4B98477B683A686B
S1130950110018000B4B98470300FB60FB68002B49
S113096001D0FB6806E07B68074A9A617B68074A06
S11309705A6100231800BD4604B080BDD841000070
S1130980B90C0000FD1B000061080000C90800004C
S113099080B582B000AF78607B681800034B98473D
S11309A003001800BD4602B080BDC046451C0000CF
S11309B080B584B000AFF8607A600A23FB180A1C83
S11309C01A800A23FB181B889B059B0D1AB27B68AF
S11309D019B28023DB000B401BB213431BB29AB243
S11309E0FB689A83FB689B8B1800BD4604B080BDEE
S11309F080B584B000AFF860B960BB1D1A80FB6895
S1130A00002B04D0BB68002B01D0012300E000239D
S1130A101A1C01231340DBB2084934221800084B86
S1130A209847FB681B68BA1D1288B968F86898472C
S1130A3003001800BD4604B080BDC046F441000068
S1130A40B90C000080B584B000AFF860B960BB1D7C
S1130A501A80FB68002B04D0BB68002B01D0012353
S1130A6000E000231A1C01231340DBB208493D2295
S1130A701800084B9847FB685B68BA1D1288B96870
S1130A80F868984703001800BD4604B080BDC0460E
S1130A90F4410000B90C000080B582B000AF78606A
S1130AA07B681B681800BD4602B080BD80B582B06B
S1130AB000AF78607B68002B02D07B681B6800E085
S1130AC000231800BD4602B080BD000080B584B08C
S1130AD000AFF860B9607A60FB68002B04D0BB6893
S1130AE0002B01D0012300E000231A1C0123134032
S1130AF0DBB20B493B2218000A4B9847FB68BA68E3
S1130B0011001800084B9847FB6800221A61FB6823
S1130B10064A1A6000231800BD4604B080BDC046D2
S1130B2008420000B90C000061240000F50B00002D
S1130B3080B588B000AFF860B9607A600023BB610B
S1130B40FB681800274B984703003B613B69002B67
S1130B5006D1BA68FB6811001800234B98473DE0A2
S1130B603B69FB6124E0FB695A687B689A4208D8B8
S1130B70FB699A68FB6959687B68CB1AD3187B6157
S1130B8009E0FB699A68FB695B68D2187B685B4281
S1130B90D31801337B61BB689A687B699A420BD98D
S1130BA0FB69BB61FB691800104B98470300FB61AC
S1130BB0FB69002BD7D100E0C046FA693B699A4231
S1130BC006D1BA68FB6811001800074B984705E086
S1130BD0BA68BB6911001800054B9847BD4608B0B8
S1130BE080BDC046990A0000190D0000AD0A00003E
S1130BF0710D000080B586B000AF78607B683B6102
S1130C003B6914331800294B984703007B613B6907
S1130C101B695A1C3B691A613B691B69FB603B6990
S1130C201B7EDBB21A000123134006D13B691B7EF5
S1130C30DBB21A000223134029D03B691B7EDBB2CE
S1130C4002221343DAB23B691A762BE07B69BB605C
S1130C503B6914331800164B9847BB681B7C012B67
S1130C6009D1BB68FA685A603B691433FA68B968F9
S1130C701800104B98473B69143318000B4B9847E6
S1130C8003007B61BB68DB68BA68100098477B6926
S1130C90002B07D07B695B68FA68D21A7B699B6872
S1130CA09A42D3D2BD4606B080BDC046990A000020
S1130CB0910D0000310B000080B584B000AFB96025
S1130CC07A600F23FB18021C1A700F23FB181B7881
S1130CD001225340DBB2002B00D000BEC046BD460B
S1130CE004B080BD80B584B000AF786039607B68A3
S1130CF01B68FB6008E0FA683B689A4201D1012353
S1130D0006E0FB681B68FB60FB68002BF3D1002343
S1130D101800BD4604B080BD80B582B000AF7860D5
S1130D2039603A687B68110018000E4B984703003D
S1130D305A1E9341DBB201225340DBB21A1C012339
S1130D401340DBB2084939221800084B98477B68E6
S1130D501A683B681A607B683A681A60C046BD46E8
S1130D6002B080BDE50C000020420000B90C000078
S1130D7080B582B000AF786039607B681A683B68E0
S1130D801A607B683A681A60C046BD4602B080BDEE
S1130D9080B584B000AF78607B681B68002B09D0F5
S1130DA07B681B68FB607B681B681A687B681A6039
S1130DB0FB6800E000231800BD4604B080BD0000BD
S1130DC090B583B000AF39601100BB1D021C1A80BE
S1130DD07B1D0A1C1A707B1D1B78043B042B5AD8FC
S1130DE09A00344BD3181B689F46BB1D1C883A6875
S1130DF0314B324910009847030063431D331A00F6
S1130E002D4B1E211000984703004FE0BB1D1C888A
S1130E103A68294B2A4910009847030063432C334E
S1130E20FF331800244B96225100984703003DE0FD
S1130E30BB1D1C883868204BFA2291009847030098
S1130E406343204A9A181C4B1F491000984703001B
S1130E502CE0BB1D1C883A68174B6421100098478E
S1130E6003006343194A9A18134B19491000984711
S1130E7003001BE0BB1D1C883A680F4B0A211000BD
S1130E80984703006343134A9A180B4B1249100006
S1130E90984703000AE0BB1D1B883A6853430F4A76
S1130EA09A18054B0E491000984703001800BD46D8
S1130EB003B090BD6442000021330000A08601000D
S1130EC010270000B70B0000B80B00002F750000BE
S1130ED030750000DF930400E0930400BFC62D00CA
S1130EE0C0C62D0090B583B000AF39601100BB1DA2
S1130EF0021C1A807B1D0A1C1A707B1D1B78043B84
S1130F00042B5FD89A00374BD3181B689F46BB1D30
S1130F101C883A68344B35491000984703006343F2
S1130F209A1C314B03211000984703001A006423D4
S1130F30534352E0BB1D1C883A682B4B2C491000CC
S1130F409847030063439A1C274B032110009847DA
S1130F5003001A0013009B009B185B003DE0BB1DBF
S1130F601C883868204BFA22910098470300634399
S1130F709A1C1D4B03211000984703002DE0BB1D54
S1130F801C883A68184B6421100098470300634397
S1130F901D331A00144B1E211000984703001CE057
S1130FA0BB1D1C883A68104B0A21100098470300A7
S1130FB063432C33FF3318000B4B962251009847A0
S1130FC003000AE0BB1D1B883A685343094A9A1878
S1130FD0054B09491000984703001800BD4603B0AB
S1130FE090BDC0467842000021330000A086010075
S1130FF010270000B70B0000B80B000080B582B0CA
S113100000AF0200BB1D1A800549BB1D1B880722C7
S11310101800044B984703001800BD4602B080BD79
S113102000093D00E50E000080B582B000AF786095
S113103039600139FDD8C046BD4602B080BD80B5D7
S113104082B000AF786039607B685A683B685B00A7
S11310501E210B401A437B685A60C046BD4602B04D
S113106080BD000080B500AF0A4B002118000A4B78
S113107098470220094B9847094B9847094B9847D2
S1131080094B9847094B9847FF20094B9847C0469E
S1131090BD4680BD004000413F10000061140000C7
S11310A03512000035130000A11100008113000067
S11310B01511000080B582B000AF78603960C04679
S11310C07B685B683A681340FAD1C046BD4602B0FB
S11310D080BD000080B584B000AFF8607A600B2357
S11310E0FB180A1C1A700B23FB181A78FB680832C9
S11310F092007968D150054AFB6811001800044B2E
S11311009847C046BD4604B080BDC046FD070000F8
S1131110B510000080B582B000AF78607B68012212
S1131120134005D0044A054B00211800044B98478E
S1131130C046BD4602B080BD060101000018004053
S1131140D510000080B582B000AF78600A00FB1CA7
S11311501A707B68FA1C12781A71C046BD4602B038
S113116080BD80B582B000AF78600A00FB1C1A70A5
S11311707B68FA1C12785A71C046BD4602B080BD25
S113118080B582B000AF78600A00FB1C1A707B68DF
S1131190FA1C12789A71C046BD4602B080BD0000A8
S11311A080B582B000AF0A4B7B607B6808211800D1
S11311B0084B98477B6804211800074B98477B68C5
S11311C001211800054B9847C046BD4602B080BDBA
S11311D0000400408111000063110000451100006B
S11311E080B582B000AF786039607B683A681A6174
S11311F0C046BD4602B080BD80B584B000AF786003
S11312007B68DB69FB60FB681B0A1F221340FB60E1
S1131210FB681800BD4604B080BD80B582B000AF45
S1131220786039607B683A68DA61C046BD4602B0CE
S113123080BD000080B582B000AF104B7B60BB1C4A
S113124000221A807B6818000D4B98470200BB1CD3
S11312501A80BB1C1B881B021A00F8235B011A406E
S11312607B6811001800074B98477B680121180020
S1131270054B9847C046BD4602B080BD00100040F3
S1131280F91100001B120000E111000080B582B0CA
S113129000AF78600A00FB1C1A70C0467B683822D5
S11312A09B5CDBB2FA1C12781340DBB2002BF5D145
S11312B0C046BD4602B080BD80B582B000AF786044
S11312C07B68DB681B09012213405A1E9341DBB281
S11312D01800BD4602B080BD80B582B000AF786012
S11312E07B681B7DDBB2802252421343DAB27B68F7
S11312F01A757B680E211800024B9847C046BD46FC
S113130002B080BD8D12000080B582B000AF78605D
S11313100A00FB1C1A707B68FA1C12781A757B6829
S113132002211800024B9847C046BD4602B080BD5A
S11313308D12000080B582B000AF0D4B7B607B68DE
S1131340822118000B4B9847C0467B6818000A4B53
S1131350984703001A0001235340DBB2002BF4D159
S11313607B681800054B9847C046BD4602B080BD57
S1131370000C004009130000B9120000D91200004B
S113138080B582B000AF044B7B60BB1C00221A8086
S1131390C046BD4602B080BD000C004080B582B09E
S11313A000AF78607B689B79DBB21800BD4602B061
S11313B080BD80B582B000AF78600A00FB1C1A7053
S11313C07B68FA1C12789A71C046BD4602B080BD93
S11313D080B584B000AF78600A00FB1C1A700F233C
S11313E0FB187A6892781A700F23FB18FA1C1B7882
S11313F012781340DAB20F23FB1803210A401A7043
S11314000F23FB181B781800BD4604B080BD80B5BF
S113141084B000AF78600A00FB1C1A700F23FB181D
S11314207A6892781A700F23FB180F22BA18127870
S113143003218A431A70FB1C1B7803221340D9B280
S11314400F23FB180F22BA1812780A431A707B680C
S11314500F22BA1812789A70C046BD4604B080BDF7
S113146080B582B000AF0200FB1D1A708023DB053B
S113147003211800104B984703001A00FB1D1B782A
S1131480934215D08023DB05FF2118000B4B9847AE
S1131490FB1D1A788023DB0511001800084B9847C0
S11314A0C0468023DB051800064B9847031EF8D07E
S11314B0C046BD4602B080BDD1130000B313000086
S11314C00F1400009D13000080B582B000AF786057
S11314D03960C0467B68DB693A681340FAD1C0467C
S11314E0BD4602B080BD80B582B000AF786039607F
S11314F07B68DB693A6813405A1E9341DBB21800DB
S1131500BD4602B080BD80B582B000AF78607B6814
S113151001221A76C046BD4602B080BD80B582B0B5
S113152000AF78607B6802221A76C046BD4602B0DE
S113153080BD80B582B000AF78607B681B7EDBB273
S11315401800BD4602B080BD80B582B000AF78609F
S11315507B681B6802221A437B681A607B6803213C
S11315601800034B9847C046BD4602B080BDC04634
S1131570C914000080B582B000AF78607B681B6836
S1131580022293431A007B681A607B6803211800C7
S1131590024B9847C046BD4602B080BDC914000046
S11315A080B584B000AF78607B681B68FB60FB6823
S11315B0DB0E01221340FB60FB685A1E9341DBB231
S11315C01800BD4604B080BD80B584B000AF78601B
S11315D039607B6803211800064B98477B681B68B9
S11315E0FB60FB683A681340FB60FB681800BD466B
S11315F004B080BDC914000080B582B000AF78602B
S113160039607B683A681A607B6803211800034BD1
S11316109847C046BD4602B080BDC046C91400000C
S113162080B582B000AF78607B685B68802252002E
S11316301A437B685A607B6804211800024B984760
S1131640C046BD4602B080BDC914000080B582B05A
S113165000AF78607B685B68064A1A407B685A6012
S11316607B6804211800044B9847C046BD4602B06D
S113167080BDC046FFFEFFFFC914000080B582B0E4
S113168000AF78607B685B688022D2021A437B6873
S11316905A607B6804211800024B9847C046BD4637
S11316A002B080BDC914000080B582B000AF78607C
S11316B07B685B68064A1A407B685A607B68042131
S11316C01800044B9847C046BD4602B080BDC046D2
S11316D0FFFFFBFFC914000080B582B000AF786043
S11316E039607B685A683B681904C0239B020B402D
S11316F01A437B685A607B6804211800024B9847A0
S1131700C046BD4602B080BDC914000080B582B099
S113171000AF786039607B683A685A607B6804215E
S11317201800034B9847C046BD4602B080BDC04672
S1131730C914000080B582B000AF786039607B685E
S11317403A68DA60C046BD4602B080BD80B584B058
S113175000AF78600A00FB1C1A707B685B6AFB6050
S1131760FB680B4A1340FB60FB1C1B789B031A00AD
S1131770FB681343FB607B68FA685A627B68042148
S11317801800044B9847C046BD4604B080BDC0460F
S1131790FFBFFFFFC914000080B582B000AF7860BE
S11317A039607B683A685A627B6804211800034BED
S11317B09847C046BD4602B080BDC046C91400006B
S11317C080B582B000AF78607B6804211800044BB8
S11317D098477B685B6A1800BD4602B080BDC0466E
S11317E0C914000080B582B000AF78600A00FB1C09
S11317F01A707B68FA1C282112785A547B680421D9
S11318001800034B9847C046BD4602B080BDC04691
S1131810C914000080B582B000AF78607B680421F1
S11318201800054B98477B6828229B5CDBB21800A4
S1131830BD4602B080BDC046C914000080B582B068
S113184000AF78607B6804211800074B98477B68D9
S11318505B8B9BB21B099BB2032213409BB2180003
S1131860BD4602B080BDC046C914000080B582B038
S113187000AF78607B6804211800044B98477B68AC
S11318805B8B9BB21800BD4602B080BDC91400003A
S113189080B582B000AF78600A00BB1C1A807B68F8
S11318A0BA1C12885A837B6804211800024B98479B
S11318B0C046BD4602B080BDC914000080B582B0E8
S11318C000AF78607B68084A934201D1052306E0A3
S11318D07B68BE221206944663449B0ADBB218005E
S11318E0BD4602B080BDC0460004004390B585B03B
S11318F000AF78600E23FC187B681800194B9847DA
S1131900030023700F23FB1800221A7019E00F2321
S1131910FB181A78144913005B009B18DB005B5C0E
S11319200E22BA1812789A4204D10F23FB181B789E
S11319305BB213E00F23FB181A780F23FB18013254
S11319401A700F23FB181B78002BE0D0074A084BB2
S113195019000020074B984701235B421800BD463D
S113196005B090BDBD180000000000209B030000DE
S11319708C420000B90C000080B582B000AF7860E2
S11319807B6803211800034B9847C046BD4602B04C
S113199080BDC046D916000090B587B000AFF8608E
S11319A0B9607A60FB681800874B984703007B6135
S11319B01223FC18FB681800844B9847030023800B
S11319C0BB680122134000D1A3E01223FB181B883B
S11319D00222134020D0FB6818007D4B98477B6897
S11319E05B889BB28022520113439AB27B685A806F
S11319F07B685B889BB2774A13409AB27B685A80B3
S1131A001223FB181B880122134002D005235B42DA
S1131A10D6E004235B42D3E01223FB181B88042284
S1131A20134021D07B685B68002B08DD7B685B88F2
S1131A309BB28022520113439AB27B685A807B681E
S1131A405B889BB21BB2002B03DAFB681800624B65
S1131A5098477B685B889BB25E4A13409AB27B6866
S1131A605A8002235B42ABE07B685B889BB21A001E
S1131A708023DB00134021D07B681B881B125B0092
S1131A801A0006231A401400FB681800534B9847A9
S1131A9002008023DB0113402343F1221A43FB6835
S1131AA0110018004E4B98477B685B889BB24D4AE7
S1131AB013409AB27B685A80002381E07B685B689C
S1131AC0002B12D17B685B889BB21BB2002B03DA1C
S1131AD0FB681800404B98477B685B889BB23D4A83
S1131AE013409AB27B685A8011E07B689B681A782D
S1131AF0FB68110018003C4B98477B689B685A1C94
S1131B007B689A607B685B685A1E7B685A60002316
S1131B1056E0BB680222134051D07B685B68002BFF
S1131B2046D01223FB181B880422134040D17B6843
S1131B305B685A1E7B685A607B685B68002B02D125
S1131B407B69002B06D07B685B68012B06D17B691F
S1131B50002B03D0FB681800244B98477B685B6814
S1131B60002B15D17B685B889BB21BB2002B07DA74
S1131B70FB6818001E4B9847FB681800164B9847E3
S1131B807B685B889BB2134A13409AB27B685A8085
S1131B907B689C68621C7B689A60FB681800154B24
S1131BA0984703002370FB681800134B984706E01E
S1131BB0FB681800104B984702235B4200E00023A7
S1131BC01800BD4607B090BDA11500006D180000B7
S1131BD007150000FFFEFFFF79190000C117000080
S1131BE099170000FFFBFFFFE51700007D160000BA
S1131BF04D160000151800001D15000080B582B0B8
S1131C0000AF786039607B685A1E9341DBB2094AA1
S1131C1009491800094B98477B683A681A617B6840
S1131C203A6811001800064B984703001800BD4697
S1131C3002B080BD0A0500008C420000B90C00000F
S1131C40ED1F000080B582B000AF78607B685A1E3B
S1131C509341DBB2074A08491800084B98477B6850
S1131C601B691800064B984703001800BD4602B0D4
S1131C7080BDC046270500008C420000B90C00005E
S1131C805D1F000080B584B000AF78603960124BEE
S1131C90FB607B681B69BB60BB6818000F4B9847EF
S1131CA003001A003B681A60FB685A1EFA60002B96
S1131CB002D105235B420AE03B681B680122134002
S1131CC004D13B681B6802221340E5D000231800AE
S1131CD0BD4604B080BDC046FFFF000033150000C0
S1131CE090B587B000AF78607B681B697B617B68C7
S1131CF03B617B6918003F4B98470300FB607B689E
S1131D005A1E9341DBB23C4A3C4918003C4B98476D
S1131D103B695B68012B07D1FB68002B04D07B690E
S1131D201800384B984703E07B691800364B9847F6
S1131D303B691B881A008023DB00134028D03B69D1
S1131D405B889BB21A000123134008D03B695B886F
S1131D509BB28022D20013439AB23B695A803B69FA
S1131D601B885B001A00294B1A4014007B69180079
S1131D70274B984702008023DB0113402343802232
S1131D8012021A437B6911001800224B98471EE087
S1131D903B691B885B00FF2213403A69528892B268
S1131DA0110001220A40511E8A41D2B213431C0081
S1131DB07B691800164B984702008023DB0113400F
S1131DC022001A437B6911001800124B984708231C
S1131DD0FA187B68110018000F4B9847B9683A69E4
S1131DE07B6918000D4B984703001800BD4607B0E7
S1131DF090BDC046A1150000970500008C4200006C
S1131E00B90C00007D160000A9160000FE070000B2
S1131E10C117000099170000851C000099190000E3
S1131E2090B587B000AF786039607B681B693B610F
S1131E307B685A1E9341DBB23D4A3E4918003E4B33
S1131E4098477B681B695A1E9341DBB23B4A394968
S1131E501800394B98473B685A1E9341DBB2384A05
S1131E6034491800344B98477B685B889BB21A004E
S1131E7080235B00134002D006235B4254E03B689E
S1131E805B889BB28022520013439AB23B685A800B
S1131E907B683A6813CA13C33B691800294B9847F7
S1131EA07B681800284B984703007B617B69002BF3
S1131EB031D07B685B889BB2244A13409AB27B681A
S1131EC05A807B6930E00C23FA187B6811001800F3
S1131ED01F4B984703007B617B69002B13D03B6841
S1131EE05B889BB21BB2002B03DA3B691800194BC9
S1131EF098477B685B889BB2144A13409AB27B680C
S1131F005A807B6910E0F9687A683B691800124BC3
S1131F10984703007B617B685B889BB21A0080232F
S1131F205B001340CFD17B691800BD4607B090BD5C
S1131F30C20500008C420000B90C0000C30500007B
S1131F40C405000021160000E11C0000FFFEFFFF95
S1131F50851C0000791900009919000080B584B02F
S1131F6000AF78601A4BFB600423BB607B685A1E89
S1131F709341DBB2174A18491800184B98477B68FD
S1131F801800174B984716E0FB68013BFB60FB68A1
S1131F90002B10DCBB68013BBB60BB68002B07D087
S1131FA00B4BFB607B68102118000E4B984702E036
S1131FB006235B4207E07B6818000B4B984703003D
S1131FC0012BE1D100231800BD4604B080BDC046FA
S1131FD0FFFF0000F70500008C420000B90C000070
S1131FE049150000911800003D18000080B584B028
S1131FF000AF786039603B6818004F4B9847030086
S11320001A000F23FB181A703B68012118004B4B70
S1132010984703001A0001235340DBB2002B25D05C
S11320200F23FB181A78464913005B009B18DB004A
S1132030CB1804331B681C221340BB603B6802218D
S11320401800404B9847031E08D03B6818003E4BCD
S113205098473B68022118003C4B9847BB68012213
S11320601A433B6811001800394B98473B6801211B
S11320701800364B98470F23FB181A783049130081
S11320805B009B18DB00CB1804331A683B68110013
S113209018002F4B98470F23FB181A782849130070
S11320A05B009B18DB00CB1808331A683B681100EF
S11320B01800284B98470F23FB181A78204913005F
S11320C05B009B18DB00CB180C331A683B681100CB
S11320D01800214B98470F23FB181A78184913004E
S11320E05B009B18DB00CB1804331B681B0E9BB2F0
S11320F0032213409AB27B689A817B689B890122F0
S11321009A429B415B42DAB23B6811001800134BC0
S113211098470F23FB181A78094913005B009B1892
S1132120DB00CB1812331A887B68DA81002318008D
S1132130BD4604B080BDC046ED180000E7140000A1
S113214000000020C915000075150000C914000026
S1132150F91500000D170000351700004D17000099
S113216080B582B000AF0200FB1D1A70FB1D1B7806
S11321707F2B09D8064BFA1D127811001F220A4042
S1132180012191400A001A60C046BD4602B080BDDC
S113219000E100E080B582B000AF0200FB1D1A70C0
S11321A0FB1D1B787F2B0ED80949FB1D1B781A00D9
S11321B01F23134001229A40130080228B50BFF347
S11321C04F8FBFF36F8FC046BD4602B080BDC0467F
S11321D000E100E080B582B000AF0200FB1D1A7080
S11321E0FB1D1B787F2B0AD80749FB1D1B781A009F
S11321F01F23134001229A40C0235B00CA50C046EB
S1132200BD4602B080BDC04600E100E080B582B0AA
S113221000AF78603960C0467B681B693A68134038
S1132220FAD1C046BD4602B080BD80B582B000AFD1
S1132230786039607B681B693A6813405A1E934181
S1132240DBB21800BD4602B080BD80B582B000AFDD
S113225078607B689B7ADBB21A00012313405A1E14
S11322609341DBB21800BD4602B080BD80B582B098
S113227000AF78607B6801229A72C046BD4602B006
S113228080BD80B582B000AF78607B6801225A724D
S1132290C046BD4602B080BD80B582B000AF786054
S11322A07B681B68022293431A007B681A607B6870
S11322B003211800024B9847C046BD4602B080BDBA
S11322C00D22000080B584B000AF786039607B686F
S11322D003211800064B98477B681B68FB60FB686A
S11322E03A681340FB60FB681800BD4604B080BD2B
S11322F00D22000080B582B000AF786039607B6841
S11323003A681A607B6803211800034B9847C0465B
S1132310BD4602B080BDC0460D22000080B582B02B
S113232000AF78600A00BB1C1A807B68BA1C128854
S1132330DA80C046BD4602B080BD80B582B000AF31
S113234078600A00FB1C1A707B68FA1C12781A73F6
S1132350C046BD4602B080BD80B582B000AF786093
S11323600A00FB1C1A707B68FA1C1278DA73C046E8
S1132370BD4602B080BD000080B582B000AF786079
S11323800A00FB1C1A707B68FA1C1278DA767B68E8
S113239020211800024B9847C046BD4602B080BDBC
S11323A00D22000080B582B000AF786008001100F3
S11323B0FB1C021C1A70BB1C0A1C1A70FB1C1B7829
S11323C07A68D318BA1C12781A777B68C02118006F
S11323D0024B9847C046BD4602B080BD0D220000A6
S11323E080B582B000AF786008001100FB1C021CAD
S11323F01A703B000A1C1A80FB1C1B787A680C3389
S11324005B00D31804333A0012881A807B68C02119
S11324101800034B9847C046BD4602B080BDC04675
S11324200D22000080B584B000AFF8607A600B2301
S1132430FB180A1C1A700B23FB181B78FA68063366
S11324409B00D31804337A681A60FB68C021180013
S1132450024B9847C046BD4604B080BD0D22000023
S113246090B585B000AF786039600F23FC183B68E5
S11324701800AB4B9847030023707B683A68DA6016
S1132480A84B8D2219000120A74B98473B680121D6
S11324901800A64B984703001A0001235340DBB2EF
S11324A0002B14D03B6802211800A14B9847031E4F
S11324B008D03B6818009F4B98473B6802211800DE
S11324C09D4B98473B68012118009C4B98473B68FB
S11324D001211800984B98470F23FB1800229A56A5
S11324E0974913009B009B189B00CB1804331A6870
S11324F03B6811001800914B98470F23FB180022EA
S11325009A568F4913009B009B189B00CB180A33E3
S11325101A783B68110018008A4B98470F23FB1860
S113252000229A56864913009B009B189B00CB18E7
S113253008331A883B6811001800834B98473B689E
S113254001211800814B98470F23FB1800229A564B
S11325507B4913009B009B189B00CB1804331B681A
S11325600C221340082B22D10F23FB1800229A5669
S1132570734913009B009B189B00CB180C331A68FB
S11325803B6800211800724B98470F23FB18002268
S11325909A566B4913009B009B189B00CB18103371
S11325A01A683B6801211800694B984778E00F23AB
S11325B0FB1800229A56624913009B009B189B004B
S11325C0CB1804331B680C22134024D10F23FB18AF
S11325D000229A565A4913009B009B189B00CB1863
S11325E00C331B689AB23B6800211800594B98477A
S11325F00F23FB1800229A56514913009B009B1885
S11326009B00CB1810331B689AB23B680121180059
S1132610504B984744E00F23FB1800229A56484930
S113262013009B009B189B00CB1804331B680C22DF
S11326301340042B34D10F23FB1800229A5640492F
S113264013009B009B189B00CB180C331B68DAB259
S11326503B6800211800404B98470F23FB180022C9
S11326609A56374913009B009B189B00CB181033D4
S11326701B68DAB23B6801211800374B98470F23D7
S1132680FB1800229A562E4913009B009B189B00AE
S1132690CB180B331A783B68110018002F4B98475E
S11326A03B6818002E4B98477A683B681100180065
S11326B02C4B98470F23FB1800229A5620491300ED
S11326C09B009B189B00CB1801331B785BB218004E
S11326D0254B98470F23FB1800229A5618491300DC
S11326E09B009B189B00CB1801331B785BB218002E
S11326F01E4B98470F23FB1800229A5610491300CB
S11327009B009B189B00CB1801331B785BB218000D
S1132710174B984700231800BD4605B090BDC0462E
S1132720D9270000BC420000B90C00002B22000095
S1132730C5220000992200000D220000F5220000AD
S113274018000020592300001D2300003B23000033
S113275025240000E1230000A523000079230000C4
S1132760832200006528000095210000D521000087
S11327706121000080B500AF00231800BD4680BD74
S113278080B584B000AF78607B68DB68FB60FB6871
S11327901800084B9847031E08D0FB681800064B26
S11327A098477B681B687A6810009847C046BD4606
S11327B004B080BD4B2200006D22000080B500AF44
S11327C0034B1B681800034B9847C046BD4680BDA9
S11327D04C0000208127000090B585B000AF7860E0
S11327E00E23FC187B6818001A4B984703002370CB
S11327F00F23FB1800221A7019E00F23FB181A7814
S1132800154913009B009B189B005B5C0E22BA18B1
S113281012789A4204D10F23FB181B785BB214E0A0
S11328200F23FB181A780F23FB1801321A700F2399
S1132830FB181B78002BE0D09E235A00074B19008D
S11328400020074B984701235B421800BD4605B0A2
S113285090BDC0468D28000018000020BC42000036
S1132860B90C000080B582B000AF786039607B6835
S1132870044A934202D1044B3A681A60C046BD46EA
S113288002B080BD002000424C00002080B582B020
S113289000AF78607B68074A934201D1042305E0C6
S11328A07B68054A944663449B0ADBB21800BD4624
S11328B002B080BD0008004300E0FFBD80B582B0D7
S11328C000AF0A4B98470A4B98470A4B1B681800FD
S11328D0094B9847021C094B101C984703007B6066
S11328E0FA239B001800064B9847EEE715010000F9
S11328F0E932000094000020CB320000B13900001E
S11329002908000080B586B000AFF860B960FB1DEF
S11329101A70FB687B610A4AB968FB681800094BA6
S11329209847FB681B683B6180231A013B691821A7
S11329301800054B9847FB681800BD4606B080BDDB
S1132940D0420000A9320000B109000090B587B060
S113295000AF78600823FB1800221A800823FB18B4
S113296005221A707B681B683B6180231A013B694E
S1132970182118001E4B98473B6914330822B918D4
S1132980012218001B4B98473B6914330822B918DD
S113299002221800184B98470823FB181B781A00CA
S11329A01F2313401B020822BA1852789B187B611C
S11329B07B69124A934204DD7B69114A944663445D
S11329C07B61104B786998470F4C00220F4BA0474E
S11329D003000C00190022000D4B08001100984759
S11329E0031CFB60FB68181CBD4607B090BDC046C5
S11329F0B1090000F1090000450A0000FF0F0000C2
S1132A0000E0FFFF913F0000913A00000000B03F5A
S1132A101540000080B582B000AF786039603A6834
S1132A207B68110018001E4B98470300013302D144
S1132A3001235B4230E03A687B6811001800194BAF
S1132A4098470300013302D101235B4224E03A6832
S1132A507B6811001800144B98470300013302D11E
S1132A6001235B4218E03A687B68110018000F4BA1
S1132A7098470300013302D101235B420CE03A681A
S1132A807B68110018000A4B98470300013302D1F8
S1132A9001235B4200E000231800BD4602B080BD64
S1132AA0B52A0000752C0000512E00002D300000C6
S1132AB00932000080B586B000AF786039607B6869
S1132AC01B687B617B691433180080231B011A0087
S1132AD01821634B98470C23FB180222002118008D
S1132AE0604B98471023FB1801221A703B681B683F
S1132AF05B7BDB18DAB21023FB185A703B681B6847
S1132B00DB7B002B07D01023FB185B780133DAB290
S1132B101023FB185A703B681B681B7C002B09D0E0
S1132B201023FB189B78802252421343DAB21023FD
S1132B30FB189A703B681B685B7C002B08D0102341
S1132B40FB189B7840221343DAB21023FB189A70C7
S1132B503B681B689B7C002B08D01023FB189B78D8
S1132B6020221343DAB21023FB189A703B681B68C7
S1132B70DB7C002B08D01023FB189B781022134316
S1132B80DAB21023FB189A703B681B68DB7D002BBC
S1132B9008D01023FB189B7808221343DAB21023C1
S1132BA0FB189A703B681B681B7D002B08D0102310
S1132BB0FB189B7804221343DAB21023FB189A7093
S1132BC03B681B685B7D002B08D01023FB189B78A7
S1132BD002221343DAB21023FB189A703B681B6875
S1132BE09B7D002B08D01023FB189B7801221343F4
S1132BF0DAB21023FB189A707B6914331022B918C7
S1132C0003221800184B9847C820184B98477B6933
S1132C1014331022B91801221800134B98477B690A
S1132C2014330C22B91802221800114B98471023B0
S1132C30FB185A780C23FB181B789A4207D11023EF
S1132C40FB189A780C23FB185B789A4202D0012374
S1132C505B4200E000231800BD4606B080BDC046BC
S1132C60B1090000AD410000F1090000290800008D
S1132C70450A000090B589B000AF786039607B6880
S1132C801B687B610C23FB18032200211800684B8E
S1132C9098470C23FB1802221A703B681B681A68B9
S1132CA01E23FC18634B101C9847030023803B68C9
S1132CB01B681B68BB611E23FB1800229B5E002B54
S1132CC017DA0C23FB185B7810221343DAB20C23B7
S1132CD0FB185A701E23FB181B885B429AB21E23F2
S1132CE0FB181A803B681B681B688022120653403D
S1132CF0BB611E23FB1800229B5E1B111BB2DAB2C0
S1132D000C23FB185A701E23FB181B88DBB21B0113
S1132D10DAB20C23FB189A70464BB8699847020044
S1132D20454B10009847021C444B111CB869984746
S1132D30031C1A1C424B4349101C9847031C1A1CC1
S1132D401E23FC183B4B101C9847030023801E23B2
S1132D50FB1800229B5E562B0FDC1E23FB1800225F
S1132D609B5E3E2B09DD0C23FB189B780C2213433E
S1132D70DAB20C23FB189A702AE01E23FB180022F7
S1132D809B5E3D2B0FDC1E23FB1800229B5E302B29
S1132D9009DD0C23FB189B7808221343DAB20C23B9
S1132DA0FB189A7014E01E23FB1800229B5E2F2B45
S1132DB00EDC1E23FB1800229B5E0D2B08DD0C236A
S1132DC0FB189B7804221343DAB20C23FB189A7085
S1132DD07B6914330C22B918032218001A4B984744
S1132DE07B6914330C22B91801221800164B98473A
S1132DF07B6914331022B91802221800134B984728
S1132E000C23FB185A781023FB181B789A4207D11D
S1132E100C23FB189A781023FB185B789A4202D093
S1132E2001235B4200E000231800BD4609B090BDB9
S1132E30AD410000B1390000F139000079360000DD
S1132E40393400000000C842F1090000450A0000BE
S1132E5090B589B000AF786039607B681B687B618E
S1132E600C23FB18032200211800684B98470C23FD
S1132E70FB1803221A703B681B685A681E23FC184F
S1132E80634B101C9847030023803B681B685B68F6
S1132E90BB611E23FB1800229B5E002B17DA0C2358
S1132EA0FB185B7810221343DAB20C23FB185A7018
S1132EB01E23FB181B885B429AB21E23FB181A8040
S1132EC03B681B681B68802212065340BB611E23AB
S1132ED0FB1800229B5E1B111BB2DAB20C23FB18F9
S1132EE05A701E23FB181B88DBB21B01DAB20C23B9
S1132EF0FB189A70464BB86998470200454B10007E
S1132F009847021C444B111CB8699847031C1A1CAF
S1132F10424B4349101C9847031C1A1C1E23FC18DF
S1132F203B4B101C9847030023801E23FB180022F0
S1132F309B5E562B0FDC1E23FB1800229B5E3E2B50
S1132F4009DD0C23FB189B780C221343DAB20C2303
S1132F50FB189A702AE01E23FB1800229B5E3D2B6F
S1132F600FDC1E23FB1800229B5E302B09DD0C2393
S1132F70FB189B7808221343DAB20C23FB189A70CF
S1132F8014E01E23FB1800229B5E2F2B0EDC1E2355
S1132F90FB1800229B5E0D2B08DD0C23FB189B788D
S1132FA004221343DAB20C23FB189A707B6914339E
S1132FB00C22B918032218001A4B98477B69143362
S1132FC00C22B91801221800164B98477B69143358
S1132FD01022B91802221800134B98470C23FB182F
S1132FE05A781023FB181B789A4207D10C23FB183C
S1132FF09A781023FB185B789A4202D001235B4233
S113300000E000231800BD4609B090BDAD410000AA
S1133010B1390000F139000079360000393400007C
S11330200000C842F1090000450A000090B589B0CB
S113303000AF786039607B681B687B610C23FB18E8
S1133040032200211800684B98470C23FB18032225
S11330501A703B681B689A681E23FC18634B101C8B
S11330609847030023803B681B689B68BB611E2351
S1133070FB1800229B5E002B17DA0C23FB185B78ED
S113308010221343DAB20C23FB185A701E23FB18C8
S11330901B885B429AB21E23FB181A803B681B688C
S11330A01B68802212065340BB611E23FB180022BA
S11330B09B5E1B111BB2DAB20C23FB185A701E2341
S11330C0FB181B88DBB21B01DAB20C23FB189A70C5
S11330D0464BB86998470200454B10009847021CBC
S11330E0444B111CB8699847031C1A1C424B4349B2
S11330F0101C9847031C1A1C1E23FC183B4B101C65
S11331009847030023801E23FB1800229B5E562B46
S11331100FDC1E23FB1800229B5E3E2B09DD0C23D3
S1133120FB189B780C221343DAB20C23FB189A7019
S11331302AE01E23FB1800229B5E3D2B0FDC1E237E
S1133140FB1800229B5E302B09DD0C23FB189B78B7
S113315008221343DAB20C23FB189A7014E01E23DE
S1133160FB1800229B5E2F2B0EDC1E23FB18002273
S11331709B5E0D2B08DD0C23FB189B780422134364
S1133180DAB20C23FB189A707B6914330C22B91839
S1133190032218001A4B98477B6914330C22B91880
S11331A001221800164B98477B6914331022B91872
S11331B002221800134B98470C23FB185A7810234B
S11331C0FB181B789A4207D10C23FB189A7810231A
S11331D0FB185B789A4202D001235B4200E0002393
S11331E01800BD4609B090BDAD410000B1390000E2
S11331F0F139000079360000393400000000C8427B
S1133200F1090000450A000080B586B000AF78607F
S113321039607B681B687B610C23FB180322002147
S113322018001E4B98470C23FB1808221A703B68A1
S11332301B689A7B0C23FB189A707B6914330C224D
S1133240B91803221800164B98477B6914330C22D3
S1133250B91801221800124B98477B6914330C22C9
S1133260B918022218000F4B98470C23FB185A7800
S11332701023FB181B789A4207D10C23FB189A7869
S11332801023FB185B789A4202D001235B4200E0D2
S113329000231800BD4606B080BDC046AD41000005
S11332A0F1090000450A000080B584B000AFF86061
S11332B0B9607A60FB68BA681A60FB687A685A6019
S11332C0FB681800BD4604B080BD80B582B000AF75
S11332D078607B685B681B687A6810009847031CF9
S11332E0181CBD4602B080BD80B500AF074B180066
S11332F0074B98470549074B00221800064B98478F
S11333000200064B1A60C046BD4680BD580000202E
S113331091090000500000200529000094000020BD
S1133320002243088B4274D303098B425FD3030A00
S11333308B4244D3030B8B4228D3030C8B420DD313
S1133340FF22090212BA030C8B4202D312120902A1
S113335065D0030B8B4219D300E0090AC30B8B42DF
S113336001D3CB03C01A5241830B8B4201D38B038D
S1133370C01A5241430B8B4201D34B03C01A524132
S1133380030B8B4201D30B03C01A5241C30A8B4275
S113339001D3CB02C01A5241830A8B4201D38B0260
S11333A0C01A5241430A8B4201D34B02C01A524104
S11333B0030A8B4201D30B02C01A5241CDD2C30976
S11333C08B4201D3CB01C01A524183098B4201D3F2
S11333D08B01C01A524143098B4201D34B01C01ADD
S11333E0524103098B4201D30B01C01A5241C30855
S11333F08B4201D3CB00C01A524183088B4201D3C4
S11334008B00C01A524143088B4201D34B00C01AAF
S11334105241411A00D20146524110467047FFE71B
S113342001B5002000F006F802BDC0460029F7D01F
S113343076E770477047C046F8B557464E4645464E
S1133440DE46E0B54702460088467F0A360EC40FC2
S1133450002E47D0FF2E24D0FB008027FF041F43FB
S1133460002399469A467F3E43465D025800DB0F8F
S11334706D0A000E984643D0FF283BD0EB00802510
S11334800022ED041D437F383618731C41469B46C9
S11334904B46614013430F2B64D875489B00C358B7
S11334A09F46002F42D108239946063BFF269A46A1
S11334B0DAE74146022A28D0032A00D1CEE0012AC5
S11334C000D0ACE0114000200022CCB24002D20572
S11334D0400AE407104320433CBC90469946A24668
S11334E0AB46F8BD002F15D104239946033B0026B3
S11334F09A46B9E7FF200222002DC5D00322C3E774
S1133500002D19D100200122BEE70124FF220C4026
S11335100020DBE7380000F007FE7626431F9F40BB
S113352000237642361A99469A469DE70C2399461B
S1133530093BFF269A4697E7280000F0F5FD431F54
S11335409D4076235B42181A00229DE780200024C8
S1133550C003FF22BAE73D005246ABE73D0021001D
S11335605246A7E73B0C9C462A04120C2B0C140071
S1133570604665463F043F0C7C4342435D437B43C6
S1133580270C9B18FF18BA4203D980235B029C4680
S1133590654424043A04240C121993015C1EA341CB
S11335A03F0C920E7D191A43AD0115432B0104D52E
S11335B001235E466A081D40154332007F32002A0B
S11335C025DD6B0704D00F232B40042B00D00435DA
S11335D02B0103D53200274B80321D40FE2A94DC98
S11335E00124A801400AD2B20C406FE78020C00336
S11335F0074207D0054205D128434002400A444609
S1133600FF2263E738434002400AFF225EE70124B9
S1133610A31A1B2B05DD0C400022002056E75E4652
S1133620CBE72A002020DA40C31A9D402B005D1E00
S1133630AB4113435A0704D00F221A40042A00D086
S113364004335A0104D5012401220C4000203DE733
S113365001249B01580A0C40002237E780200124F2
S1133660C00328434002400A0C40FF222EE7C04614
S1133670D8420000FFFFFFF7F0B54F46D646464656
S11336804400C0B5C20F47024802400A8446664659
S11336907B0A4800C90F9A46240E1500DB00000E71
S11336A08946F600FF2800D18FE001214F464F40A4
S11336B03900914266D0221A002A00DC9DE00028DD
S11336C03DD1002E00D18BE0511E002900D0B5E081
S11336D001249B1B5A0144D59B019F09380000F02B
S11336E023FD05388740844200DD96E0041B3A0040
S11336F020200134E240041BA7403B005F1EBB4175
S1133700002413435A0704D00F221A40042A00D07D
S113371004335A0127D50134FF2C00D179E001226A
S11337209B015B0AE4B22A405B02E405580AD20713
S1133730204310431CBC90469946A246F0BDFF2C82
S1133740E0D08021C9040E431B2A7BDC31002020F9
S1133750D140821A9640721E96410E439B1B5A0119
S1133760BAD45A07D0D10122DF082A40FF2C33D122
S1133770002F00D1A8E08023DB033B435B025B0AFC
S1133780FF24D1E7211A00294CDD00282AD0FF2C80
S1133790B8D08020C00406431B2900DDAFE0300010
S11337A02027C840791A8E40711E8E4106439B190A
S11337B05901D6D50134FF2C00D185E001227A4984
S11337C01A405B080B4013439CE7002E00D070E7BF
S11337D06BE73B1EC5D100227B025B0AE4B2A3E780
S11337E014008FE7002E4DD0481E002857D19B1996
S11337F001245A01B5D50224E0E7002A25D1621C30
S1133800D2B2012A72DD9F1B7A0135D5F71A0D0059
S113381064E7012200232A4086E73B00634A241A16
S113382013406FE700296CD1611CC8B201284EDD3A
S1133830FF2949D09B195B080C0063E7FF2A41D09C
S11338400A0081E701269B1B89E7002C1CD0FF2876
S113385021D08024E404524223431B2A00DD96E055
S11338601C002025D440AA1A93405A1E9341234396
S1133870F31A04000D002DE7002F00D02EE70022DC
S11338800024A9E70C003DE7002B58D0D243002ABE
S1133890EED0FF28E1D13300FF240D0032E7FF29E9
S11338A010D0010078E7002B6ED0FF24002E00D149
S11338B028E780225146D203114203D061461142C7
S11338C000D13300FF241DE7FF2400232CE7002C44
S11338D0E9D1002B63D0002E00D113E79B195A01C4
S11338E000D43EE7314A0C0013400BE7002C1ED1F4
S11338F0002B2FD1002E4FD033000D0002E70126FC
S113390055E7002C1FD1002B43D0C94300290BD00D
S1133910FF2839D01B2944DC1C002027CC40791A0D
S11339208B40591E8B4123439B19040040E7002B15
S11339301AD1002E24D180270022FF031BE7330075
S113394004000D00DEE6FF281ED08024E404494272
S11339502343DFE7002E00D1D4E69F1B7A0100D475
S113396037E7F31A0D00CDE6FF24002E00D1C9E697
S113397080225046D2031042A4D060461042A1D106
S113398033000D00FF24BDE63300FF24BAE6012313
S11339906EE733000400B5E6002700221CE733007D
S11339A0B0E60123C0E7C046FFFFFF7DFFFFFFFB3A
S11339B041024300C20F490A1B0E00207E2B0DDD7D
S11339C09D2B0CDC802000040143952B0ADC9620FF
S11339D0C31AD9404842002A00D108007047034B5B
S11339E0D018FBE7963B9940F4E7C046FFFFFF7F02
S11339F070B5002830D0C317C4185C40C50F200030
S1133A0000F092FB9E231B1A962B0DDC9622D21AF1
S1133A1094402A006402640ADBB26402DB05600A93
S1133A20D2071843104370BD992B19DC9922D21A7E
S1133A30002A29DD94402200144C1440510704D07C
S1133A400F210A40042A00D00434620113D4A401D3
S1133A50640ADBB22A00E0E7002200230024DCE74A
S1133A6005222100121AD140B922D21A9440621EB2
S1133A7094410C43DAE7054B2A001C409F23A40120
S1133A801B1A640ADBB2C8E72200D5E7FFFFFFFB7D
S1133A90F0B557464546DE464E46E0B50C0398461B
S1133AA04E00230B87B0070092469B46760DCD0F40
S1133AB0002E6BD06D4B9E4235D080245B46420F66
S1133AC02404DB0014431C43C3009946684BA346FB
S1133AD09C46002300276644029343461C035A0075
S1133AE0DB0F5046240B520D984600D176E05F4B15
S1133AF09A426DD08023410F1B040B435C49E400C0
S1133B008C461C43C300002062444146B6186940F9
S1133B10721C0191944607430F2F00D9B0E0554A17
S1133B20BF00D25997465B460343994600D087E0CD
S1133B3000239B46023308270293CEE742460192B4
S1133B40022867D0032800D10EE2012800D062E1E8
S1133B50002300240022994601990140CDB200219E
S1133B6012030B0D120B1B051343434A2405134088
S1133B701C436400ED0764082C434846210007B049
S1133B803CBC90469946A246AB46F0BD03439946D9
S1133B904FD05B46002B00D189E1584600F0C4FAAF
S1133BA003000B3B1C2B00DD7AE11D22D31A3A00E3
S1133BB001005C46DA4008398C4013008F402343EF
S1133BC09B46B94600232D4E0027361A029384E7FC
S1133BD0534623432AD10024022096E75346234325
S1133BE020D0002C00D157E1200000F09DFA030002
S1133BF00B3B1C2B00DD49E11D21CB1A5146020071
S1133C00D9405346083A944093400C431B4A121A35
S1133C1000207AE70125019B144C1D40002300225B
S1133C2099469CE70024002201206EE753460320B6
S1133C306BE700239B4601330427002602934CE7DD
S1133C40032381460C27029347E7802200230025A3
S1133C5012039946054C82E75C464B4602986FE78F
S1133C605C464B46019502986AE7C046FF07000090
S1133C7001FCFFFF18430000FFFF0F800DFCFFFF56
S1133C804A464946170C1A0C1B041B0C080419005D
S1133C90000C41431500884619007D437943039580
S1133CA089462900150045434D44029545462D0C8F
S1133CB0AA46029D5544A94506D98A46802149024F
S1133CC08946CA4451460391290C0491414609048A
S1133CD02D04090C88462900250C24044144240C95
S1133CE00591210041438846210079438A4668436F
S1133CF0414650448146080C48446F43824503D9E9
S1133D008021490289464F44010C894639004944BF
S1133D10029141460F0404993F0C88460004C019DF
S1133D2080444146049159460F0C0904090C884605
S1133D3059438A4639005143894641464A435146CC
S1133D40090C8B467B43D2185A44934203D98023EF
S1133D505B029B46D94451460904090C8A464146F4
S1133D6061437C43130C12044B445244A1468A46DB
S1133D703C0041466C434D4351464D440F0C7D1964
S1133D80A94503D98021490288464444049F0399E4
S1133D90B84641448B46834580414142884651465A
S1133DA008042F04000C3F1858460299101889463D
S1133DB0904292414F44BA46524299469346C24475
S1133DC0D144CB448F42BF41C245894199459B416F
S1133DD0934592417F4249422D0C52420F435B422C
S1133DE013437F19FF185B463C19DB0D059A6402E7
S1133DF01C43430213435D1EAB415A46C00D0343AB
S1133E0052021343E20156D501205A0803401343DA
S1133E10E207134364085A48604400284DDD5A07FA
S1133E2009D00F221A40042A05D01A1D9A429B4138
S1133E305B42E4181300E20104D58020514AC0001B
S1133E4014406044504A904200DDE3E60125DB085B
S1133E5062071A436402019B9146220B4405640DD8
S1133E601D407CE6802259461203114208D01442B8
S1133E7006D122431203120B45469946434C6EE683
S1133E805B461A431203120B404C68E60300544687
S1133E90283B9C400023B9E600F046F92030A6E612
S1133EA00300283B9F400023BB4699468AE600F066
S1133EB03BF9203074E6B446ADE701252A1A382AC6
S1133EC006DD019B00241D4000230022994646E69E
S1133ED01F2A21DC20252000AD1A1E00AB40A8407B
S1133EE0D6405D1EAB4130431843D440430709D04C
S1133EF00F230340042B05D00300181D98429B4157
S1133F005B42E418230221D50125019B01241D40B5
S1133F1000230022994622E61F2521006D42281A1B
S1133F20C1400800202A1DD05F35AA1A94402343BB
S1133F305C1EA341072503431D400022002D09D028
S1133F400F2200241A401800042AD6D10300650762
S1133F506402220BDB082B4301259946019B0024B4
S1133F601D40FCE50024E2E78022012512032243E0
S1133F7001991203120B0D409946044CEFE5C0461B
S1133F80FF030000FFFFFFFEFE070000FF07000025
S1133F9070B5002830D0C317C4185C40C50F20008A
S1133FA000F0C2F8174B184A1B1AD21A1F2A18DD40
S1133FB0164AD21A9440002224035B05240B5B0D9D
S1133FC00021100024030A0D240B12052243104C77
S1133FD01B05224013435B00ED075B082B431900CC
S1133FE070BD210091400A000B21081AC4405B05F2
S1133FF02403240B5B0DE3E70025002300240022A7
S1134000DEE7C0461E040000330400001304000071
S1134010FFFF0F80F0B54C00640D0B03621C450FCD
S11340205B0A52052B43C90FC500520D012A28DD36
S11340303A4AA618FE2E1BDC002E3EDD800102004B
S1134040501E82416D0F2A43DB0013435A0704D0EC
S11340500F221A40042A00D004338022D2041A40CA
S11340605AD00136FF2E03D09B015B0AF4B201E063
S1134070FF2400235802E405400AC90720430843EB
S1134080F0BD002C07D01D43F2D08020DB0080045B
S11340900343FF26DAE72B4303D00523DB08FF2C79
S11340A003D05B025B0AE4B2E4E7002B32D0802049
S11340B0C00303435B025B0ADCE73200173214DB04
S11340C080221E2712041343BF1B1F2F0FDC144A28
S11340D0944664442A00A5402E00A340751EAE41B8
S11340E0FA40334313430026B0E70024D5E7022205
S11340F05242961B1A00F240202F09D009488446E8
S11341006444A3402B435D1EAB41002613439DE74B
S11341100023F7E70023ADE73400BFE780FCFFFF8F
S113412082FCFFFFA2FCFFFF1C2101231B04984219
S113413001D3000C10391B0A984201D3000A083934
S11341401B09984201D30009043902A2105C4018EB
S11341507047C0460403020201010101000000008F
S11341600000000070B500260C4D0D4C641BA4101B
S1134170A64209D1002600F0EFF80A4D0A4C641B50
S1134180A410A64205D170BDB300EB589847013680
S1134190EEE7B300EB5898470136F2E764430000BA
S11341A06443000064430000684300000300821875
S11341B0934200D1704719700133F9E72E2E2F680E
S11341C0706C2F706F72742F68706C5F6770696F9A
S11341D05F626173652E68002E2E2F68616C2F73E9
S11341E072632F68616C5F6932635F6D5F73796EB0
S11341F0632E63002E2E2F68616C2F7372632F68F9
S1134200616C5F696F2E63002E2E2F68616C2F73B3
S113421072632F68616C5F74696D65722E63000050
S11342202E2E2F68616C2F7574696C732F737263F3
S11342302F7574696C735F6C6973742E630000006E
S11342402E2E2F68706C2F636F72652F68706C5FF1
S1134250636F72655F6D30706C75735F62617365F7
S11342602E630000740E0000520E0000300E000099
S11342700C0E0000EA0D0000A00F00007E0F0000ED
S11342805E0F0000340F00000E0F00002E2E2F686A
S1134290706C2F736572636F6D2F68706C5F7365DC
S11342A072636F6D2E6300000000000000000000C8
S11342B00000000000000000000000002E2E2F6807
S11342C0706C2F74632F68706C5F74632E630000CE
S11342D04D290000152A000064350000B4340000A4
S11342E0B4340000B23400005635000056350000E6
S11342F04C350000B2340000563500004C35000047
S113430056350000B23400005C3500005C35000016
S11343105C350000EC350000803C0000403B0000B0
S1134320403B00003C3B0000583C0000583C00006F
S11343304A3C00003C3B0000583C00004A3C000062
S1134340583C00003C3B0000603C0000603C000026
S1134350603C0000643E0000F8B5C046F8BC08BCF0
S11343609E467047DD000000F8B5C046F8BC08BCA6
S10B43709E467047B5000000F1
S11343780300000014002000000100000E0F0000DC
S11343880000D70000093D000011000008030000E8
S10F439800000000F40100000000000020
S9030000FC
